{
  "contractName": "Marketplace",
  "abi": [
    {
      "constant": true,
      "inputs": [],
      "name": "name",
      "outputs": [
        {
          "name": "",
          "type": "string"
        }
      ],
      "payable": false,
      "stateMutability": "view",
      "type": "function",
      "signature": "0x06fdde03"
    },
    {
      "constant": true,
      "inputs": [
        {
          "name": "",
          "type": "uint256"
        }
      ],
      "name": "products",
      "outputs": [
        {
          "name": "id",
          "type": "uint256"
        },
        {
          "name": "name",
          "type": "string"
        },
        {
          "name": "price",
          "type": "uint256"
        },
        {
          "name": "owner",
          "type": "address"
        },
        {
          "name": "purchased",
          "type": "bool"
        }
      ],
      "payable": false,
      "stateMutability": "view",
      "type": "function",
      "signature": "0x7acc0b20"
    },
    {
      "constant": true,
      "inputs": [],
      "name": "productCount",
      "outputs": [
        {
          "name": "",
          "type": "uint256"
        }
      ],
      "payable": false,
      "stateMutability": "view",
      "type": "function",
      "signature": "0xe0f6ef87"
    },
    {
      "inputs": [],
      "payable": false,
      "stateMutability": "nonpayable",
      "type": "constructor",
      "signature": "constructor"
    },
    {
      "anonymous": false,
      "inputs": [
        {
          "indexed": false,
          "name": "id",
          "type": "uint256"
        },
        {
          "indexed": false,
          "name": "name",
          "type": "string"
        },
        {
          "indexed": false,
          "name": "price",
          "type": "uint256"
        },
        {
          "indexed": false,
          "name": "owner",
          "type": "address"
        },
        {
          "indexed": false,
          "name": "purchased",
          "type": "bool"
        }
      ],
      "name": "ProductCreated",
      "type": "event",
      "signature": "0xbc59c0c8165864dcceb377dd07d8f431d4303f8e501cb0a0374a10cc68d71836"
    },
    {
      "anonymous": false,
      "inputs": [
        {
          "indexed": false,
          "name": "id",
          "type": "uint256"
        },
        {
          "indexed": false,
          "name": "name",
          "type": "string"
        },
        {
          "indexed": false,
          "name": "price",
          "type": "uint256"
        },
        {
          "indexed": false,
          "name": "owner",
          "type": "address"
        },
        {
          "indexed": false,
          "name": "purchased",
          "type": "bool"
        }
      ],
      "name": "ProductPurchased",
      "type": "event",
      "signature": "0x79558d0d7d4d900e2f15c4cc0a665f1acdbe415e44de900ecdd1e5bf12b56f4e"
    },
    {
      "constant": false,
      "inputs": [
        {
          "name": "_name",
          "type": "string"
        },
        {
          "name": "_price",
          "type": "uint256"
        }
      ],
      "name": "createProduct",
      "outputs": [],
      "payable": false,
      "stateMutability": "nonpayable",
      "type": "function",
      "signature": "0xe9300c6c"
    },
    {
      "constant": false,
      "inputs": [
        {
          "name": "_id",
          "type": "uint256"
        }
      ],
      "name": "purchaseProduct",
      "outputs": [],
      "payable": true,
      "stateMutability": "payable",
      "type": "function",
      "signature": "0x38e76a03"
    }
  ],
  "bytecode": "0x6080604052600060015534801561001557600080fd5b506040805190810160405280601b81526020017f4461707020556e6976657273697479204d61726b6574706c616365000000000081525060009080519060200190610061929190610067565b5061010c565b828054600181600116156101000203166002900490600052602060002090601f016020900481019282601f106100a857805160ff19168380011785556100d6565b828001600101855582156100d6579182015b828111156100d55782518255916020019190600101906100ba565b5b5090506100e391906100e7565b5090565b61010991905b808211156101055760008160009055506001016100ed565b5090565b90565b610c148061011b6000396000f3fe60806040526004361061006d576000357c0100000000000000000000000000000000000000000000000000000000900463ffffffff16806306fdde031461007257806338e76a03146101025780637acc0b2014610130578063e0f6ef8714610230578063e9300c6c1461025b575b600080fd5b34801561007e57600080fd5b5061008761032d565b6040518080602001828103825283818151815260200191508051906020019080838360005b838110156100c75780820151818401526020810190506100ac565b50505050905090810190601f1680156100f45780820380516001836020036101000a031916815260200191505b509250505060405180910390f35b61012e6004803603602081101561011857600080fd5b81019080803590602001909291905050506103cb565b005b34801561013c57600080fd5b506101696004803603602081101561015357600080fd5b81019080803590602001909291905050506107e3565b60405180868152602001806020018581526020018473ffffffffffffffffffffffffffffffffffffffff1673ffffffffffffffffffffffffffffffffffffffff16815260200183151515158152602001828103825286818151815260200191508051906020019080838360005b838110156101f15780820151818401526020810190506101d6565b50505050905090810190601f16801561021e5780820380516001836020036101000a031916815260200191505b50965050505050505060405180910390f35b34801561023c57600080fd5b506102456108de565b6040518082815260200191505060405180910390f35b34801561026757600080fd5b5061032b6004803603604081101561027e57600080fd5b810190808035906020019064010000000081111561029b57600080fd5b8201836020820111156102ad57600080fd5b803590602001918460018302840111640100000000831117156102cf57600080fd5b91908080601f016020809104026020016040519081016040528093929190818152602001838380828437600081840152601f19601f820116905080830192505050505050509192919290803590602001909291905050506108e4565b005b60008054600181600116156101000203166002900480601f0160208091040260200160405190810160405280929190818152602001828054600181600116156101000203166002900480156103c35780601f10610398576101008083540402835291602001916103c3565b820191906000526020600020905b8154815290600101906020018083116103a657829003601f168201915b505050505081565b6103d3610afb565b6002600083815260200190815260200160002060a0604051908101604052908160008201548152602001600182018054600181600116156101000203166002900480601f0160208091040260200160405190810160405280929190818152602001828054600181600116156101000203166002900480156104955780601f1061046a57610100808354040283529160200191610495565b820191906000526020600020905b81548152906001019060200180831161047857829003601f168201915b50505050508152602001600282015481526020016003820160009054906101000a900473ffffffffffffffffffffffffffffffffffffffff1673ffffffffffffffffffffffffffffffffffffffff1673ffffffffffffffffffffffffffffffffffffffff1681526020016003820160149054906101000a900460ff16151515158152505090506000816060015190506000826000015111801561053e5750600154826000015111155b151561054957600080fd5b8160400151341015151561055c57600080fd5b816080015115151561056d57600080fd5b3373ffffffffffffffffffffffffffffffffffffffff168173ffffffffffffffffffffffffffffffffffffffff16141515156105a857600080fd5b33826060019073ffffffffffffffffffffffffffffffffffffffff16908173ffffffffffffffffffffffffffffffffffffffff16815250506001826080019015159081151581525050816002600085815260200190815260200160002060008201518160000155602082015181600101908051906020019061062b929190610b43565b506040820151816002015560608201518160030160006101000a81548173ffffffffffffffffffffffffffffffffffffffff021916908373ffffffffffffffffffffffffffffffffffffffff16021790555060808201518160030160146101000a81548160ff0219169083151502179055509050508073ffffffffffffffffffffffffffffffffffffffff166108fc349081150290604051600060405180830381858888f193505050501580156106e6573d6000803e3d6000fd5b507f79558d0d7d4d900e2f15c4cc0a665f1acdbe415e44de900ecdd1e5bf12b56f4e6001548360200151846040015133600160405180868152602001806020018581526020018473ffffffffffffffffffffffffffffffffffffffff1673ffffffffffffffffffffffffffffffffffffffff16815260200183151515158152602001828103825286818151815260200191508051906020019080838360005b838110156107a0578082015181840152602081019050610785565b50505050905090810190601f1680156107cd5780820380516001836020036101000a031916815260200191505b50965050505050505060405180910390a1505050565b6002602052806000526040600020600091509050806000015490806001018054600181600116156101000203166002900480601f0160208091040260200160405190810160405280929190818152602001828054600181600116156101000203166002900480156108955780601f1061086a57610100808354040283529160200191610895565b820191906000526020600020905b81548152906001019060200180831161087857829003601f168201915b5050505050908060020154908060030160009054906101000a900473ffffffffffffffffffffffffffffffffffffffff16908060030160149054906101000a900460ff16905085565b60015481565b600082511115156108f457600080fd5b60008111151561090357600080fd5b60016000815480929190600101919050555060a06040519081016040528060015481526020018381526020018281526020013373ffffffffffffffffffffffffffffffffffffffff16815260200160001515815250600260006001548152602001908152602001600020600082015181600001556020820151816001019080519060200190610993929190610b43565b506040820151816002015560608201518160030160006101000a81548173ffffffffffffffffffffffffffffffffffffffff021916908373ffffffffffffffffffffffffffffffffffffffff16021790555060808201518160030160146101000a81548160ff0219169083151502179055509050507fbc59c0c8165864dcceb377dd07d8f431d4303f8e501cb0a0374a10cc68d71836600154838333600060405180868152602001806020018581526020018473ffffffffffffffffffffffffffffffffffffffff1673ffffffffffffffffffffffffffffffffffffffff16815260200183151515158152602001828103825286818151815260200191508051906020019080838360005b83811015610ab9578082015181840152602081019050610a9e565b50505050905090810190601f168015610ae65780820380516001836020036101000a031916815260200191505b50965050505050505060405180910390a15050565b60a060405190810160405280600081526020016060815260200160008152602001600073ffffffffffffffffffffffffffffffffffffffff1681526020016000151581525090565b828054600181600116156101000203166002900490600052602060002090601f016020900481019282601f10610b8457805160ff1916838001178555610bb2565b82800160010185558215610bb2579182015b82811115610bb1578251825591602001919060010190610b96565b5b509050610bbf9190610bc3565b5090565b610be591905b80821115610be1576000816000905550600101610bc9565b5090565b9056fea165627a7a72305820c674b879e85b5d4317a4e4170d2f958e00533abb8efac7b19177da599dd7a9100029",
  "source": "pragma solidity ^0.5.0;\r\n\r\ncontract Marketplace {\r\n   string public name;\r\n   \r\n   /* We will declare a variable as unsigned integer.\r\n     An unsigned integer in Solidity is a data type that represents a number greater than or equal to zero.\r\n   */ \r\n   uint public productCount = 0;\r\n   \r\n   /* We will create a mapping for the Product.\r\n      A mapping in Solidity works like associative arrays, or hash tables, with key value-pairs. \r\n      Mappings have unique keys that return unique values. \r\n      In our case, we will use an id as a key, and the value will be a Product struct. \r\n      This will essentially allow us to look up a product by id, like a database.\r\n   */\r\n   mapping(uint => Product) public products;\r\n   \r\n   \r\n   /* We will create an struct.\r\n      An struct in Solidity allows you to create your own data structures, with any arbitrary attributes. \r\n      The Product struct stores all the attributes of a product that we'll need, like id, name, price, owner, and purchased.\r\n   */\r\n   struct Product {\r\n      uint id;\r\n\t  string name;\r\n\t  uint price;\r\n\t  address payable owner;\r\n\t  bool purchased;\r\n   }\r\n   \r\n   /* We will create an event.\r\n     An event in Solidity works like a Listener in Java.\r\n     An event allows external subscribers to listen to an action.\r\n     In this case, the ProductCreated event will allow us to verify that a product was created on the blockchain.\r\n   */\r\n   event ProductCreated(\r\n      uint id,\r\n\t  string name,\r\n\t  uint price,\r\n\t  address payable owner,\r\n\t  bool purchased\r\n   );\r\n   \r\n   event ProductPurchased(\r\n      uint id,\r\n\t  string name,\r\n\t  uint price,\r\n\t  address payable owner,\r\n\t  bool purchased\r\n   );   \r\n   \r\n   constructor() public {\r\n      name = \"Dapp University Marketplace\";\r\n   }\r\n   \r\n   function createProduct(string memory _name, uint _price) public {\r\n      // Require a valid name\r\n\t  require(bytes(_name).length > 0);\r\n\t  // Require a valid price\r\n\t  require(_price > 0);\r\n      // Increment product count\r\n      productCount ++;\r\n\t  // Create the product\r\n\t  products[productCount] = Product(productCount, _name, _price, msg.sender, false);\r\n\t  // Trigger an event\r\n      emit ProductCreated(productCount, _name, _price, msg.sender, false);\r\n   }\r\n   \r\n   /* We are going to create a function that allows us to buy a product and \r\n     sends Ether, and weis to the seller\r\n     To do this, when we create the function purchaseProduct we add a modifier : payable \r\n     We also add this modifier payer in all the places that use the variable _seller\r\n   */\r\n   function purchaseProduct(uint _id) public payable {\r\n       // Fetch the product\r\n       Product memory _product = products[_id];\r\n\t   \r\n       // Fetch the owner\r\n\t   address payable _seller = _product.owner;\r\n\t   \r\n\t   // Make sure the product has a valid id\r\n       require(_product.id > 0 && _product.id <= productCount);\r\n\t   \r\n\t   // Require that there is enough Ether in the transaction\r\n       require(msg.value >= _product.price);\r\n\t   \r\n       // Require that the product has not been purchased already\r\n       require(!_product.purchased);\r\n\t   \r\n\t   // Require that the buyer is not the seller\r\n       require(_seller != msg.sender);\r\n\t   \r\n\t   // Transfer ownership to the buyer\r\n       _product.owner = msg.sender;\r\n\t   \r\n\t   // Mark as purchased\r\n       _product.purchased = true;\r\n\t   \r\n\t   // Update the product\r\n       products[_id] = _product;\r\n\t   \r\n\t   // Pay the seller by sending them Ether\r\n       address(_seller).transfer(msg.value);\r\n\t   \r\n       // Trigger an event\r\n       emit ProductPurchased(productCount, _product.name, _product.price, msg.sender, true);\t \t   \r\n   }\r\n}",
  "sourcePath": "C:/Users/FannyRiveraOrtiz/GitHub/marketplace/starter_kit/src/contracts/Marketplace.sol",
  "compiler": {
    "name": "solc",
    "version": "0.5.0+commit.1d4f565a.Emscripten.clang"
  },
  "schemaVersion": "3.0.2",
  "updatedAt": "2024-01-29T16:05:55.433Z",
  "devdoc": {
    "methods": {}
  },
  "userdoc": {
    "methods": {}
  }
}